{
  "transactions": [
    {
      "hash": "0x3004754d6603cbdc774d2c444acf55ee92a3a82981c14e97f37e63321352789b",
      "transactionType": "CALL",
      "contractName": null,
      "contractAddress": "0x779877a7b0d9e8603169ddbd7836e478b4624789",
      "function": "transferAndCall(address,uint256,bytes)",
      "arguments": [
        "0x9DdfaCa8183c41ad55329BdeeD9F6A8d53168B1B",
        "3000000000000000000",
        "0xd38af5975b545bd26ca5e638bddf5176723b476c747f0f67d689dad3a529893c"
      ],
      "transaction": {
        "from": "0x7171b1e6e802c1923f184573c4bc731eb30af1f6",
        "to": "0x779877a7b0d9e8603169ddbd7836e478b4624789",
        "gas": "0x14cbb",
        "value": "0x0",
        "input": "0x4000aea00000000000000000000000009ddfaca8183c41ad55329bdeed9f6a8d53168b1b00000000000000000000000000000000000000000000000029a2241af62c000000000000000000000000000000000000000000000000000000000000000000600000000000000000000000000000000000000000000000000000000000000020d38af5975b545bd26ca5e638bddf5176723b476c747f0f67d689dad3a529893c",
        "nonce": "0x32",
        "chainId": "0xaa36a7"
      },
      "additionalContracts": [],
      "isFixedGasLimit": false
    }
  ],
  "receipts": [
    {
      "status": "0x1",
      "cumulativeGasUsed": "0x981287",
      "logs": [
        {
          "address": "0x779877a7b0d9e8603169ddbd7836e478b4624789",
          "topics": [
            "0xddf252ad1be2c89b69c2b068fc378daa952ba7f163c4a11628f55a4df523b3ef",
            "0x0000000000000000000000007171b1e6e802c1923f184573c4bc731eb30af1f6",
            "0x0000000000000000000000009ddfaca8183c41ad55329bdeed9f6a8d53168b1b"
          ],
          "data": "0x00000000000000000000000000000000000000000000000029a2241af62c0000",
          "blockHash": "0x62ef5d01dffde11e3e808f27f27090cf60146956902d1d72abfbf2050e14dede",
          "blockNumber": "0x7cb381",
          "blockTimestamp": "0x68078e44",
          "transactionHash": "0x3004754d6603cbdc774d2c444acf55ee92a3a82981c14e97f37e63321352789b",
          "transactionIndex": "0x66",
          "logIndex": "0x90",
          "removed": false
        },
        {
          "address": "0x779877a7b0d9e8603169ddbd7836e478b4624789",
          "topics": [
            "0xe19260aff97b920c7df27010903aeb9c8d2be5d310a2c67824cf3f15396e4c16",
            "0x0000000000000000000000007171b1e6e802c1923f184573c4bc731eb30af1f6",
            "0x0000000000000000000000009ddfaca8183c41ad55329bdeed9f6a8d53168b1b"
          ],
          "data": "0x00000000000000000000000000000000000000000000000029a2241af62c000000000000000000000000000000000000000000000000000000000000000000400000000000000000000000000000000000000000000000000000000000000020d38af5975b545bd26ca5e638bddf5176723b476c747f0f67d689dad3a529893c",
          "blockHash": "0x62ef5d01dffde11e3e808f27f27090cf60146956902d1d72abfbf2050e14dede",
          "blockNumber": "0x7cb381",
          "blockTimestamp": "0x68078e44",
          "transactionHash": "0x3004754d6603cbdc774d2c444acf55ee92a3a82981c14e97f37e63321352789b",
          "transactionIndex": "0x66",
          "logIndex": "0x91",
          "removed": false
        },
        {
          "address": "0x9ddfaca8183c41ad55329bdeed9f6a8d53168b1b",
          "topics": [
            "0x1ced9348ff549fceab2ac57cd3a9de38edaaab274b725ee82c23e8fc8c4eec7a",
            "0xd38af5975b545bd26ca5e638bddf5176723b476c747f0f67d689dad3a529893c"
          ],
          "data": "0x0000000000000000000000000000000000000000000000006f05b59d3b20000000000000000000000000000000000000000000000000000098a7d9b8314c0000",
          "blockHash": "0x62ef5d01dffde11e3e808f27f27090cf60146956902d1d72abfbf2050e14dede",
          "blockNumber": "0x7cb381",
          "blockTimestamp": "0x68078e44",
          "transactionHash": "0x3004754d6603cbdc774d2c444acf55ee92a3a82981c14e97f37e63321352789b",
          "transactionIndex": "0x66",
          "logIndex": "0x92",
          "removed": false
        }
      ],
      "logsBloom": "0x00000004000000000000000000000000000000000020000000000000020000000000000000001000000000000000000000000000000000000000000000000000000100000020000000000008000000000000000000000002000020000020000008000000000000000000000000400000000000000000000000000010000040000000000000000000000000010000800000000020000000000000000000000000000000000000000000000000010000000000000000000000000004000000000000000002000000000000000000000000000000000000000100000000000000000050000000000000800000000000000000000000000000000000000000000000",
      "type": "0x2",
      "transactionHash": "0x3004754d6603cbdc774d2c444acf55ee92a3a82981c14e97f37e63321352789b",
      "transactionIndex": "0x66",
      "blockHash": "0x62ef5d01dffde11e3e808f27f27090cf60146956902d1d72abfbf2050e14dede",
      "blockNumber": "0x7cb381",
      "gasUsed": "0xf0e5",
      "effectiveGasPrice": "0x1d249e1a3",
      "from": "0x7171b1e6e802c1923f184573c4bc731eb30af1f6",
      "to": "0x779877a7b0d9e8603169ddbd7836e478b4624789",
      "contractAddress": null
    }
  ],
  "libraries": [],
  "pending": [],
  "returns": {},
  "timestamp": 1745325635,
  "chain": 11155111,
  "commit": "afe8de8"
}